:0915AA00405354434953502300FF
:100F5800420146000041016C004201490000420183
:100F68005B000041014B0041016B00410148004E0C
:100F7800015D020B024B029302BA0310037003DCFB
:100F88004F014CFFFFFFFFFFFFFFFF0304050600B3
:020F9800010254
:1012B600AC06AD077E617FA812048B90015BEEF051
:1012C600A3EFF0C390015CE0940190015BE0940011
:0F12D6005005E4F0A304F0E4900149F0A3F022E6
:100CCD001211291214CDE490014BF090016B7408B0
:100CDD00F090016BE0FFD3940E504C1213EF900186
:100CED0046EEF0A3EFF0C39499EE940950319001C4
:100CFD006BE0244CF582E43401F583E0900148F07B
:100D0D0025E0245DF582E43401F583E0FEA3E0FFE8
:100D1D001212B690016C7401F090014BF0800890A6
:100D2D00016BE004F080AA90014BE064016007E4E0
:0F0D3D0090016CF0C2907F327E001214B6808459
:1011290043BA8075F518E4F594F593F592F591F5C0
:1011390096F595F5B2F5B1F5B4F5B3F5CAF5C9F576
:10114900CCF5CBF5E2F5E11213AE1212E57F017E83
:10115900001214B61215237F017E001214B6D2AF05
:011169002263
:1000B2000000000000000000000000000000EF1F30
:0800C20070011E144E70E922CA
:1014B6007D607C09ED1D70011C144C70F7EF1F70E8
:0614C600011E144E70EA45
:0114CC0022FD
:1013AE005389FB538E7F5389FC5389F7D2B9E5B726
:1013BE0054FD4402F5B7D2A9758CFF758AD8D28C2C
:0113CE0022FC
:1012E50053DEF043DE2090FEADE054F84404F09068
:1012F500FEA8E0547F4480F0E0549FF0E054E044C1
:0E13050008F0E5BC54F04408F5BC43BC80225F
:1013EF00EF540FFFE5BC54F04FF5BC43BC40E5BCD8
:0E13FF0030E5FB53BCDFAFBDEFFEADBEEDFF32
:01140D0022BC
:10152300120B2F53B57F53B67F7BFF7A1579AA022F
:02153300159E03
:0E154500900093E06404600543C11080F3221F
:1014CD003009137B017A00794D900008E0FD7C0016
:0714DD001207BF1214E42204
:03000B000210518F
:10105100C0E0C083C082C0D075D000C006C0079078
:10106100016CE0602990014AE004F07006900149AA
:10107100E004F090015BE0FEA3E0FFC390014AE0D1
:101081009F900149E09E4006E4F0A3F0B290D007A2
:0B109100D006D0D0D082D083D0E03257
:0915B300405354434953502300F6
:100F9A0043008DFF15B343000A0000004300900090
:060FAA00000041000900F7
:100B2F0053B2FC43B10390FE077480F090FE07E0D0
:100B3F0030E0F953DCF075F490E4FDFF1213E07D23
:100B4F00087F011213E07D3F7F071213E07D3F7F87
:100B5F00091213E07D077F0B1213E0E4FD7F0112F2
:100B6F0013E09000937402F0E49000D4F09000DA58
:100B7F00F0A3F0C20B90017512051800C20100E43A
:100B8F00900179F0A3F0A37408F043AF809000E7D1
:100B9F007401F0E07018F99000E8C9F0A3F0A3E930
:0F0BAF00F0A3E4F0A3F0A3F0FBFAF912109C22DC
:09148300E4FD7F0E1213E07F115D
:10148C00E5FC20E7FBEF4480F5FCE5FC20E7FBAF37
:02149C00EC2240
:1013CF00E0FBA3E475F0011204F6A9F0FA1204335E
:0113DF00FD10
:0F13E000E5FC20E7FBEF547FF5FCAF058FEC2217
:1011AB009000E1EBF0A3EAF0A3E9F0AE077F161293
:1011BB00148CAD07AC05AF051DEF601BAF06121409
:1011CB008C9000E1E0FBA3E475F0011204F6A9F0AA
:0A11DB00FAEF12047980DFAF04225E
:10138C009000E3EBF0A3EAF0A3E9F0AE079000E6DF
:10139C00E0FF14F0EF600AAF069000E31213CF8069
:0213AC00EC2231
:0300CB0002000E22
:10000E00C0E0C0F0C083C082C0D075D000C000C0B8
:10001E0001C002C003C004C005C006C0079000DFC7
:10002E00E5FCF07F0612148C9000DCEFF07F0212DC
:10003E00148CA3EFF07F0412148CA3EFF09000DC6D
:10004E00E030E1031200099000DCE030E203121010
:10005E00E69000DDE030E003120D4C9000DDE03064
:10006E00E1031211E59000DDE030E20312142D9051
:10007E0000DEE030E1031206AF9000DCE030E0037A
:10008E0012000A9000DFE0F5FCD007D006D005D0B4
:10009E0004D003D002D001D000D0D0D082D083D0F3
:0400AE00F0D0E0327C
:0100090022D4
:1010E600E4FDFF1213E09000937402F0E49000D444
:1010F600F0C20B0D7F0E1213E07D487F111213E034
:101106007D027F0E1213E07D487F111213E07D01F0
:101116007F0E1213E07D907F141213E0E4FD7F0E24
:031126000213E0D1
:01000A0022D3
:100D4C00121483AE07EE30E20D54FBFD7F1112132B
:100D5C00E0E49000D4F0EE30E4084480FD7F111202
:100D6C0013E09000D4E024FD604714604724047025
:100D7C0046EE30E0427B017A0079007F201211AB05
:100D8C00900006E0FEA3E0FF121467900006EEF060
:100D9C00A3EFF0900000E0546024E0600B24E060CE
:100DAC000A24407009020EA002144B0215BC021555
:080DBC0053020DC412100222C3
:0D1553009000D47405F07D607F110213E05C
:101535009000D47403F07D407F111213E0020DC4B6
:0D1560009000D47404F07D407F110213E070
:0C157A00E49000D4F07D487F110213E0E3
:100DC400121483EF20E16B9000D5E0FEA3E0FFD383
:100DD4009440EE940040067D407F4080009000E106
:100DE400EFF09000D7E0FBA3E0FAA3E0F99000E66F
:100DF400EFF07F2012138C9000E1E0FF7E00C3909F
:100E040000D6E09FF09000D5E09EF09000D8EE8FE1
:100E1400F01204E09000D5E07002A3E0700D7D0AAA
:100E24007F111213E0E49000D4F0227D027F1112AE
:030E340013E022A6
:10100200121483EF30E0479000D7E0FBA3E0FAA38D
:10101200E0F97F201211ABEFFDC39000D6E09DF006
:101022009000D5E09400F09000D8E48FF01204E034
:101032009000D5E07002A3E0700D7D487F1112137D
:0F104200E0E49000D4F0227D407F111213E022F1
:101313009000F1EBF0A3EAF0A3E9F0AE05AF061EEF
:10132300EF600F9000F5E02420FF9000F11213CF3F
:0913330080EB7D017F110213E043
:10151000ED2420FF1211ABAE07E4FD7F141213E09F
:03152000AF0622F1
:1011E5007D01121485AE07EE30E5077D407F1112B3
:1011F50013E0EE30E207E4FD7F111213E09000905A
:10120500E0FBA3E0FAA3E04A4B600A900090A3A399
:08121500E0F9120549C20B22A9
:10142D007D02121485AE07EE30E5077D407F111267
:0E143D0013E0EE30E207E4FD7F111213E0220F
:1006AF007D017F0E1213E07F1412148CAE07EE3013
:1006BF00E6077D807F141213E0EE20E0030207BEF1
:1006CF007B017A00794D7F211211AB900008EFF07A
:1006DF0090008DE0FBA3E0FAA3E04A4B7003020702
:1006EF009BE49000E0F0900008E0FF9000E0E0FE57
:1006FF00C39F400302079B90008DE0FBA3E0FAA38A
:10070F00E0F9900009E0FD3395E08D82F583120446
:10071F004CFF744D2EF582E43400F583E06F703694
:10072F00900009E004F0900009E0FF3395E08F821C
:10073F00F58312044C704CFD7F141213E090FE00F1
:10074F00E4F0F5F453DCF090FE07F07F0AFE12148C
:10075F009E75C76080FE90008DE0FBA3E0FAA3E0DA
:10076F00F9120433FF9000E0E0244DF582E43400E9
:10077F00F583E0B507089000097401F08005E49057
:10078F000009F09000E0E004F00206F5D2099000B5
:10079F000AE0FBA3E0FAA3E04A4B601390000AA320
:1007AF00A3E0F9120549E4FD7F141213E0C20922F8
:1014E40053AF7F7D017F0E1213E01D7F141213E0B2
:0614F400C20943AF802293
:0D156D007B017A00790DAD07AC060207BFC7
:1007BF009000E7EBF0A3EAF0A3E9F0A3ECF0A3EDD0
:1007CF00F0900093E06404600302088D9000EDF058
:1007DF00A3F09000EF7413F0A37488F053AF7F7DF4
:1007EF0001121485EF30E01943AF807F0A7E0012AB
:1007FF00140E9000EF74FFF5F01204E045F070DC7A
:10080F00229000EAE0FEA3E0FFD39440EE648094D0
:10081F008040047F4080009000ECEFF053AF7FC228
:10082F000B7D017F0E1213E09000E7E0FBA3E0FACF
:10083F00A3E0F99000EDE0FEA3E0FFE92FF9EA3E17
:10084F00FA9000ECE0FD9000F57401F0121313D252
:10085F000B43AF809000ECE0FFFD7C009000EEE0DA
:10086F002DF09000EDE03CF0C39000EBE09DF09098
:0F087F0000EAE09CF0EFC3944040030207E1223F
:0C15860090000AEBF0A3EAF0A3E9F022C9
:0C159200900090EBF0A3EAF0A3E9F02237
:0C159E0090008DEBF0A3EAF0A3E9F0222E
:10144B00900001E024DF600A14600A240270090294
:0C145B00121D0212500214FA1215532246
:10121D00900093E0B40408900000E06421600302A4
:10122D0015539000D77401F0A37401F0A37475F0F9
:10123D00900006E0FFA3E09000D5CFF0A3EFF012F1
:03124D0015602207
:10125000900093E0B40408900000E064A1600302F1
:1012600015539000D77401F0A37401F0A37475F0C6
:10127000900006E0FFA3E09000D5CFF0A3EFF012BE
:03128000153522FF
:1014FA00900093E0B40408900000E06421600302C5
:06150A00155312157A22B0
:100EA000900001E0B40D00504F900EB0F828287368
:100EB000020ED7020EDA020EF8020EDD020EF80262
:100EC0000EE0020EE3020EE6020EE9020EEC020E46
:100ED000EF020EF2020EF5020595020958020A937E
:100EE000020FB102088E020003020EFC0209F60294
:0C0EF000116A02133C0200061215532286
:10059500900000E030E770900003E0706A90000280
:1005A500E07064900006E07004A3E064026003025A
:1005B50006A8900000E0540F14601914603C240252
:1005C50060030206A8900005E07006900004E06054
:1005D500190206A8900093E0B4040C900005E070A1
:1005E50006900004E060030206A89000D774FFF0AF
:1005F500A3740CF0A374C902069A900093E0B404A6
:1006050006900005E060030206A8900004E0FE5491
:100615000F9000E0F0EE146044247F600604600350
:100625000206A69000E0E0FF7E007401A80708809E
:1006350005C333CE33CED8F9FF9000DAE0FDEF5D88
:100645009000D7600C74FFF0A3740CF0A374CB80FA
:100655000A74FFF0A3740CF0A374C980389000E00D
:10066500E0FF7E007401A807088005C333CE33CEB2
:10067500D8F9FF9000DBE0FDEF5D9000D7600C74CA
:10068500FFF0A3740CF0A374CB800A74FFF0A3747D
:100695000CF0A374C9F09000D5E4F0A37402F080C7
:0A06A50005800002155312153522DE
:10095800900093E064047023900000E0B4021C90BF
:100968000005E07016900003E0707C900002E070D3
:1009780076900006E07002A3E06002806A900004AE
:10098800E0FE540F9000E0F0EE14602C247F60032A
:100998000470549000DAE0FF9000E0E0FDF8740184
:1009A800088002C333D8FCF45F9000DAF07F0E129F
:1009B80013E07D407F1180239000DBE0FF9000E092
:1009C800E0FDF87401088002C333D8FCF45F90009E
:1009D800DBF07F0E1213E07D807F141213E0E4FD3C
:0E09E8007F0E1213E0800302155312157A22BF
:100A9300900093E064047023900000E0B4021C9083
:100AA3000005E07016900003E0707A900002E07099
:100AB30074900006E07002A3E06002806890000476
:100AC300E0FE540F9000E0F0EE14602B247F6003EF
:100AD3000470529000DAE0FF9000E0E0FDF874014A
:100AE300088002C333D8FC4F9000DAF07F0E121354
:100AF300E07D107F1180229000DBE0FF9000E0E0BA
:100B0300FDF87401088002C333D8FC4F9000DBF07A
:100B13007F0E1213E07D207F141213E0E4FD7F0E9D
:0C0B23001213E0800302155312157A2211
:100FB100900000E07025900005E0701F900004E0B3
:100FC1007019900003E07013900002E0C394805008
:100FD1000A900006E07002A3E0600302155390003E
:100FE10002E09000E0F0FDE4FF1213E09000E0E089
:100FF10090009360057403F080037402F012157A77
:0110010022CC
:10088E00900000E020E703020937900003E024FE09
:10089E006023146039240260030209379000D77474
:1008AE00FFF0A3740CF0A3744AF09000D5E4F0A30B
:1008BE007412F080779000D774FFF0A3740CF0A33D
:1008CE00745CF09000D5E4F0A37443F0805E900069
:1008DE0002E01460201460362402704B9000D7742E
:1008EE00FFF0A3740CF0A3749FF09000D5E4F0A376
:1008FE007404F080379000D774FFF0A3740CF0A34B
:10090E0074A3F09000D5E4F0A37408F0801E90005C
:10091E00D774FFF0A3740CF0A374ABF09000D5E481
:10092E00F0A3741EF080058000021553900006E0BF
:10093E00FEA3E0FFD39000D6E09F9000D5E09E404E
:0A094E0005EEF0A3EFF012153522BC
:0300030002155390
:100EFC00900000E064807024900003E0701E90006D
:100F0C0002E07018900005E07012900004E0700C84
:100F1C00900006E07004A3E0640160030215539096
:100F2C000093E09000D7B4040C74FFF0A3740CF0A1
:100F3C00A374CB800A74FFF0A3740CF0A374C9F0F3
:0C0F4C009000D5E4F0A304F0121535224B
:1009F600900093E064026022900000E0701C90007A
:100A060003E07016900005E07010900004E0700A94
:100A1600900006E07002A3E0600302155390000206
:100A2600E0640190009370547404F0E49000DAF0EE
:100A36009000DBF07D017F0E1213E07D207F121205
:100A460013E07D087F101213E07D027F0E1213E083
:100A56007D207F121213E07D087F101213E07D01C6
:100A66007F0E1213E0E4FD7F121213E07D087F1360
:100A76001213E0E4FD7F0E1213E0800D7403F09074
:0D0A860000DA74FFF09000DBF012157A2208
:10116A00900093E0B4041D900000E0B48116900052
:10117A0003E07010900005E0700AA3E07004A3E099
:10118A00640160030215539000D774FFF0A3740C36
:10119A00F0A374C9F09000D5E4F0A304F012153559
:0111AA002222
:10133C00900093E0B4041B900000E0B40114900002
:10134C0003E0700E900005E07008A3E07002A3E0CB
:09135C00600302155312157A22F8
:030006000215538D
:0315BC00021553C2
:1012830090016D12050C900170E0A3F090016FE0E6
:10129300900172F090016EE0900173F090016DE0A7
:1012A300900174F0900171E0FCA3E0FDA3E0FEA3C4
:0312B300E0FF2237
:101467009000E0EEF0A3EFF0E0A3F09000E0E09052
:0C14770000E3F09000E2E0FEA3E0FF22A2
:10140E00EF1FAC0670011E4C6014000000000000BF
:0F141E0000000000000000000000000080E2223B
:10149E00AB07AA06EB1BAE0270011A4E60097FE87D
:0814AE007E0312140E80ED22F2
:100E3700900116EBF0A3EAF0A3E9F09001417401E9
:100E4700F0A37401F0A37419F0900116E0F9A3E080
:100E5700FAA3E09000E8C9F0A3EAF0A3E9F0900153
:100E670041E0F9A3E0FAA3E09000EBC9F0A3EAF0B0
:100E7700A3E9F07B017A00790D12109C900144EEF2
:100E8700F0A3EFF0900141E4F0A3F0A3F012156D89
:090E9700900144E0FEA3E0FF22FB
:100C4A001201000202000040BF3402FF000101024B
:100C5A000001090243000201008032090400000178
:100C6A0002020100052400100105240100010424E8
:100C7A0002020524060001070582034000FF090459
:100C8A000100020A00000007058102400000070572
:100C9A0001024000000403090408035300540043FE
:100CAA00001E035300540043002000550053004225
:100CBA00002000530065007200690061006C0000AA
:030CCA0000010026
:03000000020BBE32
:0C0BBE00787FE4F6D8FD758121020C055B
:10043300BB010689828A83E0225002E722BBFE02C7
:09044300E32289828A83E49322FA
:10044C00BB010CE58229F582E5833AF583E0225065
:10045C0006E92582F8E622BBFE06E92582F8E222AF
:0D046C00E58229F582E5833AF583E49322C9
:10047900BB010689828A83F0225002F722BBFE0162
:02048900F3225C
:10048B00BC000BBE0029EF8DF084FFADF022E4CC55
:10049B00F875F008EF2FFFEE33FEEC33FCEE9DEC1E
:1004AB00984005FCEE9DFE0FD5F0E9E4CEFD22ED64
:1004BB00F8F5F0EE8420D21CFEADF075F008EF2FAE
:1004CB00FFED33FD4007985006D5F0F222C398FD9F
:0504DB000FD5F0EA223C
:1004E000C5F0F8A3E028F0C5F0F8E58215827002A7
:0604F0001583E038F02244
:1004F600A3F8E0C5F025F0F0E582158270021583B9
:06050600E0C838F0E82215
:0C050C00ECF0A3EDF0A3EEF0A3EFF02262
:10051800A8828583F0D083D08212052F12052F126E
:10052800052F12052FE473E493A3C583C5F0C58393
:10053800C8C582C8F0A3C583C5F0C583C8C582C82D
:010548002290
:060549008A838982E4733D
:10109C009000E8E0FFA3E0FEA3E0CF9000F1F0A306
:1010AC00EEF0A3EFF09000EBE0CBF0A3E0CAF0A3DE
:1010BC00E0C9F07F229000F4AD82AC831204338D32
:1010CC00828C83F0A309E970010ADFEC9000EBE05D
:0A10DC00FBA3E0FAA3E0F9020133E0
:100BCA00020CCDE493A3F8E493A34003F68001F268
:100BDA0008DFF48029E493A3F85407240CC8C3332C
:100BEA00C4540F4420C8834004F456800146F6DFFB
:100BFA00E4800B0102040810204080900F58E47E24
:100C0A00019360BCA3FF543F30E509541FFEE493EF
:100C1A00A360010ECF54C025E060A840B8E493A3B6
:100C2A00FAE493A3F8E493A3C8C582C8CAC583CAE1
:100C3A00F0A3C8C582C8CAC583CADFE9DEE780BE99
:010FB0000040
:1000CE00E50824F1F582E43400F583E0050822907A
:1000DE0000EE3007039000F1E475F00112054F02B7
:1000EE0004332000E97F2ED2008018EF540F2490A5
:1000FE00D43440D4FF30040BEF24BFB41A005003A5
:10010E002461FFE50960021509050CE50C70020576
:10011E000B30070E9000EEE475F00112054FEF0262
:10012E0004790213657403D2078003E4C207F5084D
:10013E009000EE120566E4F509F50BF50CE5096085
:10014E00077F2012011180F5750AFFC201C200C29D
:10015E0002C203C205C206C2081200DDFF700D30D6
:10016E0007057F00120122AF0CAE0B22B4255FC231
:10017E00D5C2041200DDFF24D0B40A00501A75F067
:10018E000A780930D50508B6FF0106C6A426F62062
:10019E00D5047002D20380D924CFB41A00EF5004D4
:1001AE00C2E5D204020323D20180C6D20080C0D29F
:1001BE000280BCD2D580BAD20580B47F2012011144
:1001CE002002077401B5090040F11200CEFF1201A2
:1001DE001102014BD208D20680951200CEFB1200FE
:1001EE00CEFA1200CEF94A4B700679F47A037BFFF1
:1001FE0020022EE509602A7E008E8275830012048D
:10020E004C60060EEE650A70F0C2D5EBC0E0EAC097
:10021E00E0E9C0E0EE12036AD0E0F9D0E0FAD0E0F7
:10022E00FB120433FF60AAEBC0E0EAC0E0E9C0E0D5
:10023E00120111D0E02401F9D0E03400FAD0E0FB35
:10024E00E50A0460DCD50AD980877BFF7A037966DC
:10025E00D202809C791080027908C206C2088008FA
:10026E00D2D5790A8004790AC2D5E50A047002F55E
:10027E000AE4FAFDFEFF1200CEFC7B0820011312E9
:10028E0000CEFD7B1030000A1200CEFE1200CEFF13
:10029E007B20EC3382D592D55013C3E43000069FF9
:1002AE00FFE49EFEE42001039DFDE49CFCE4CBF8FC
:1002BE00C201EC700CCFCECDCCE824F8F870F380F0
:1002CE0017C3EF33FFEE33FEED33FDEC33FCEB33B0
:1002DE00FB994002FB0FD8E9EB300105F8D0E0C4E2
:1002EE0048B201C0E00AEC4D4E4F78207B0070C240
:1002FE00EAB50A0040BCC0E012036CD0F0D0E0209A
:10030E000104C4C0E0C4B201C0F01200FAD0F0D5AE
:10031E00F0EB02014B12056F01E85302625801B96E
:10032E004C01B54202664F026E44026E4901CE4345
:08033E000274550258460258F2
:100346004502584704145001BD2D01C12E01E42B6E
:1003560001C52301E22003FD2A017D48000001DCDE
:100366003F3F3F00790AA2D5200314300509B91092
:10037600020404B9080104A2D52006025001042093
:1003860002689202B509005034C0E07F203003199C
:100396007F30A20272067205500F1203C3C202C258
:1003A60006C205C2087F30800F300503E9C0E0129F
:1003B6000111300503D0E0F9D0E0B509CC300517BE
:1003C6007F30B9100C1201117F583004077F7880F6
:1003D60003B908031201113002057F2D0201117FB6
:1003E600202008F87F2B2006F322920280CF286E69
:1003F600756C6C2900D2011200CE3001F8C201786A
:100406000930D50108F602017D2D504349581200E6
:10041600CE2403B405004001E490040F93120102B8
:0D042600743A120102D20375090402026249
:10054F00F8E0FBA3A3E0F925F0F0E5821582700235
:07055F001583E0FA38F022D9
:09056600EBF0A3EAF0A3E9F02296
:10056F00D083D082F8E4937012740193700DA3A31B
:10057F0093F8740193F5828883E47374029368602F
:06058F00EFA3A3A380DF2F
:10136500EFB40A07740D121370740A309811A89916
:10137500B8130CC2983098FDA899C298B811F630E8
:0713850099FDC299F59922C0
:00000001FF
